{
    "contractName": "SimpleInsurance",
    "abi": [
        {
            "inputs": [
                {
                    "internalType": "address",
                    "name": "_insured",
                    "type": "address"
                },
                {
                    "internalType": "uint256",
                    "name": "_premium",
                    "type": "uint256"
                },
                {
                    "internalType": "uint256",
                    "name": "_payout",
                    "type": "uint256"
                }
            ],
            "stateMutability": "nonpayable",
            "type": "constructor"
        },
        {
            "inputs": [],
            "name": "claimMade",
            "outputs": [
                {
                    "internalType": "bool",
                    "name": "",
                    "type": "bool"
                }
            ],
            "stateMutability": "view",
            "type": "function"
        },
        {
            "inputs": [],
            "name": "getContractBalance",
            "outputs": [
                {
                    "internalType": "uint256",
                    "name": "",
                    "type": "uint256"
                }
            ],
            "stateMutability": "view",
            "type": "function"
        },
        {
            "inputs": [],
            "name": "insured",
            "outputs": [
                {
                    "internalType": "address",
                    "name": "",
                    "type": "address"
                }
            ],
            "stateMutability": "view",
            "type": "function"
        },
        {
            "inputs": [],
            "name": "insurer",
            "outputs": [
                {
                    "internalType": "address",
                    "name": "",
                    "type": "address"
                }
            ],
            "stateMutability": "view",
            "type": "function"
        },
        {
            "inputs": [],
            "name": "makeClaim",
            "outputs": [],
            "stateMutability": "nonpayable",
            "type": "function"
        },
        {
            "inputs": [],
            "name": "payPremium",
            "outputs": [],
            "stateMutability": "payable",
            "type": "function"
        },
        {
            "inputs": [],
            "name": "payout",
            "outputs": [
                {
                    "internalType": "uint256",
                    "name": "",
                    "type": "uint256"
                }
            ],
            "stateMutability": "view",
            "type": "function"
        },
        {
            "inputs": [],
            "name": "premium",
            "outputs": [
                {
                    "internalType": "uint256",
                    "name": "",
                    "type": "uint256"
                }
            ],
            "stateMutability": "view",
            "type": "function"
        },
        {
            "inputs": [],
            "name": "premiumPaid",
            "outputs": [
                {
                    "internalType": "bool",
                    "name": "",
                    "type": "bool"
                }
            ],
            "stateMutability": "view",
            "type": "function"
        }
    ],
    "bytecode": "608060405234801561001057600080fd5b5060405161059238038061059283398101604081905261002f91610074565b60008054336001600160a01b031991821617909155600180549091166001600160a01b0394909416939093179092556002556003556004805461ffff191690556100b7565b60008060006060848603121561008957600080fd5b83516001600160a01b03811681146100a057600080fd5b602085015160409095015190969495509392505050565b6104cc806100c66000396000f3fe6080604052600436106100865760003560e01c8063c130b93411610059578063c130b934146100fb578063dbc837c51461011a578063e0a73a9314610152578063eebb136314610168578063f5aa02001461018857600080fd5b806329c08ba21461008b5780635b6a251b1461009557806363bd1d4a146100c45780636f9fb98a146100e8575b600080fd5b61009361019d565b005b3480156100a157600080fd5b506004546100af9060ff1681565b60405190151581526020015b60405180910390f35b3480156100d057600080fd5b506100da60035481565b6040519081526020016100bb565b3480156100f457600080fd5b50476100da565b34801561010757600080fd5b506004546100af90610100900460ff1681565b34801561012657600080fd5b5060005461013a906001600160a01b031681565b6040516001600160a01b0390911681526020016100bb565b34801561015e57600080fd5b506100da60025481565b34801561017457600080fd5b5060015461013a906001600160a01b031681565b34801561019457600080fd5b506100936102c3565b6001546001600160a01b031633146102105760405162461bcd60e51b815260206004820152602b60248201527f4f6e6c792074686520696e73757265642070617274792063616e20706179207460448201526a343290383932b6b4bab69760a91b60648201526084015b60405180910390fd5b60025434146102615760405162461bcd60e51b815260206004820152601960248201527f496e636f7272656374207072656d69756d20616d6f756e742e000000000000006044820152606401610207565b60045460ff16156102b45760405162461bcd60e51b815260206004820152601e60248201527f5072656d69756d2068617320616c7265616479206265656e20706169642e00006044820152606401610207565b6004805460ff19166001179055565b6001546001600160a01b0316331461032e5760405162461bcd60e51b815260206004820152602860248201527f4f6e6c792074686520696e73757265642070617274792063616e206d616b6520604482015267309031b630b4b69760c11b6064820152608401610207565b60045460ff166103945760405162461bcd60e51b815260206004820152602b60248201527f5072656d69756d206d7573742062652070616964206265666f7265206d616b6960448201526a373390309031b630b4b69760a91b6064820152608401610207565b600454610100900460ff16156103ec5760405162461bcd60e51b815260206004820152601c60248201527f436c61696d2068617320616c7265616479206265656e206d6164652e000000006044820152606401610207565b6004805461ff001916610100179055610403610405565b565b6003544710156104575760405162461bcd60e51b815260206004820152601e60248201527f496e73756666696369656e742066756e647320666f72207061796f75742e00006044820152606401610207565b6001546003546040516001600160a01b039092169181156108fc0291906000818181858888f19350505050158015610493573d6000803e3d6000fd5b5056fea26469706673582212200fe05639fa70d77bace1186c37ce5ef15b1a51cce31677d1a343fac2c14d746d64736f6c63430008130033",
    "sourcePath": "/Users/song/bc/go-ethereum/tests/solidity/contracts/insurance.sol",
    "compiler": {
        "name": "solc",
        "version": "0.8.19+commit.7dd6d404"
    },
    "functionHashes": {
        "claimMade()": "c130b934",
        "getContractBalance()": "6f9fb98a",
        "insured()": "eebb1363",
        "insurer()": "dbc837c5",
        "makeClaim()": "f5aa0200",
        "payPremium()": "29c08ba2",
        "payout()": "63bd1d4a",
        "premium()": "e0a73a93",
        "premiumPaid()": "5b6a251b"
    },
    "gasEstimates": {
        "creation": {
            "codeDepositCost": "245600",
            "executionCost": "infinite",
            "totalCost": "infinite"
        },
        "external": {
            "claimMade()": "2310",
            "getContractBalance()": "261",
            "insured()": "2403",
            "insurer()": "2359",
            "makeClaim()": "infinite",
            "payPremium()": "30733",
            "payout()": "2340",
            "premium()": "2339",
            "premiumPaid()": "2322"
        },
        "internal": {
            "payoutClaim()": "infinite"
        }
    }
}