{
    "contractName": "Voting",
    "abi": [
        {
            "inputs": [
                {
                    "internalType": "string[]",
                    "name": "proposalNames",
                    "type": "string[]"
                }
            ],
            "stateMutability": "nonpayable",
            "type": "constructor"
        },
        {
            "inputs": [],
            "name": "chairperson",
            "outputs": [
                {
                    "internalType": "address",
                    "name": "",
                    "type": "address"
                }
            ],
            "stateMutability": "view",
            "type": "function"
        },
        {
            "inputs": [
                {
                    "internalType": "address",
                    "name": "voter",
                    "type": "address"
                }
            ],
            "name": "giveRightToVote",
            "outputs": [],
            "stateMutability": "nonpayable",
            "type": "function"
        },
        {
            "inputs": [
                {
                    "internalType": "uint256",
                    "name": "",
                    "type": "uint256"
                }
            ],
            "name": "proposals",
            "outputs": [
                {
                    "internalType": "string",
                    "name": "name",
                    "type": "string"
                },
                {
                    "internalType": "uint256",
                    "name": "voteCount",
                    "type": "uint256"
                }
            ],
            "stateMutability": "view",
            "type": "function"
        },
        {
            "inputs": [
                {
                    "internalType": "uint256",
                    "name": "proposal",
                    "type": "uint256"
                }
            ],
            "name": "vote",
            "outputs": [],
            "stateMutability": "nonpayable",
            "type": "function"
        },
        {
            "inputs": [
                {
                    "internalType": "address",
                    "name": "",
                    "type": "address"
                }
            ],
            "name": "voters",
            "outputs": [
                {
                    "internalType": "bool",
                    "name": "voted",
                    "type": "bool"
                },
                {
                    "internalType": "uint256",
                    "name": "vote",
                    "type": "uint256"
                }
            ],
            "stateMutability": "view",
            "type": "function"
        },
        {
            "inputs": [],
            "name": "winnerName",
            "outputs": [
                {
                    "internalType": "string",
                    "name": "winnerName_",
                    "type": "string"
                }
            ],
            "stateMutability": "view",
            "type": "function"
        },
        {
            "inputs": [],
            "name": "winningProposal",
            "outputs": [
                {
                    "internalType": "uint256",
                    "name": "winningProposal_",
                    "type": "uint256"
                }
            ],
            "stateMutability": "view",
            "type": "function"
        }
    ],
    "bytecode": "60806040523480156200001157600080fd5b5060405162000a8d38038062000a8d833981016040819052620000349162000121565b600080546001600160a01b031916331781555b8151811015620000d0576002604051806040016040528084848151811062000073576200007362000265565b60209081029190910181015182526000918101829052835460018101855593825290208151919260020201908190620000ad90826200030a565b506020820151816001015550508080620000c790620003d6565b91505062000047565b5050620003fe565b634e487b7160e01b600052604160045260246000fd5b604051601f8201601f191681016001600160401b0381118282101715620001195762000119620000d8565b604052919050565b600060208083850312156200013557600080fd5b82516001600160401b03808211156200014d57600080fd5b8185019150601f86818401126200016357600080fd5b825182811115620001785762000178620000d8565b8060051b62000189868201620000ee565b918252848101860191868101908a841115620001a457600080fd5b87870192505b838310156200025757825186811115620001c45760008081fd5b8701603f81018c13620001d75760008081fd5b8881015187811115620001ee57620001ee620000d8565b62000201818801601f19168b01620000ee565b81815260408e81848601011115620002195760008081fd5b60005b8381101562000239578481018201518382018e01528c016200021c565b505060009181018b01919091528352509187019190870190620001aa565b9a9950505050505050505050565b634e487b7160e01b600052603260045260246000fd5b600181811c908216806200029057607f821691505b602082108103620002b157634e487b7160e01b600052602260045260246000fd5b50919050565b601f8211156200030557600081815260208120601f850160051c81016020861015620002e05750805b601f850160051c820191505b818110156200030157828155600101620002ec565b5050505b505050565b81516001600160401b03811115620003265762000326620000d8565b6200033e816200033784546200027b565b84620002b7565b602080601f8311600181146200037657600084156200035d5750858301515b600019600386901b1c1916600185901b17855562000301565b600085815260208120601f198616915b82811015620003a75788860151825594840194600190910190840162000386565b5085821015620003c65787850151600019600388901b60f8161c191681555b5050505050600190811b01905550565b600060018201620003f757634e487b7160e01b600052601160045260246000fd5b5060010190565b61067f806200040e6000396000f3fe608060405234801561001057600080fd5b506004361061007d5760003560e01c8063609ff1bd1161005b578063609ff1bd146100ec5780639e7b8d6114610102578063a3ec138d14610115578063e2ba53f01461015957600080fd5b80630121b93f14610082578063013cf08b146100975780632e4176cf146100c1575b600080fd5b6100956100903660046104ed565b61016e565b005b6100aa6100a53660046104ed565b610215565b6040516100b892919061054c565b60405180910390f35b6000546100d4906001600160a01b031681565b6040516001600160a01b0390911681526020016100b8565b6100f46102d1565b6040519081526020016100b8565b61009561011036600461056e565b61034e565b61014261012336600461056e565b6001602081905260009182526040909120805491015460ff9091169082565b6040805192151583526020830191909152016100b8565b610161610432565b6040516100b8919061059e565b336000908152600160205260409020805460ff16156101c55760405162461bcd60e51b815260206004820152600e60248201526d20b63932b0b23c903b37ba32b21760911b60448201526064015b60405180910390fd5b805460ff19166001908117825581810183905560028054849081106101ec576101ec6105b1565b9060005260206000209060020201600101600082825461020c91906105dd565b90915550505050565b6002818154811061022557600080fd5b9060005260206000209060020201600091509050806000018054610248906105f6565b80601f0160208091040260200160405190810160405280929190818152602001828054610274906105f6565b80156102c15780601f10610296576101008083540402835291602001916102c1565b820191906000526020600020905b8154815290600101906020018083116102a457829003601f168201915b5050505050908060010154905082565b600080805b6002548110156103495781600282815481106102f4576102f46105b1565b9060005260206000209060020201600101541115610337576002818154811061031f5761031f6105b1565b90600052602060002090600202016001015491508092505b8061034181610630565b9150506102d6565b505090565b6000546001600160a01b031633146103a85760405162461bcd60e51b815260206004820152601f60248201527f4f6e6c79206368616972706572736f6e2063616e2063616c6c20746869732e0060448201526064016101bc565b6001600160a01b03811660009081526001602052604090205460ff16156104115760405162461bcd60e51b815260206004820152601860248201527f54686520766f74657220616c726561647920766f7465642e000000000000000060448201526064016101bc565b6001600160a01b03166000908152600160205260409020805460ff19169055565b6060600261043e6102d1565b8154811061044e5761044e6105b1565b9060005260206000209060020201600001805461046a906105f6565b80601f0160208091040260200160405190810160405280929190818152602001828054610496906105f6565b80156104e35780601f106104b8576101008083540402835291602001916104e3565b820191906000526020600020905b8154815290600101906020018083116104c657829003601f168201915b5050505050905090565b6000602082840312156104ff57600080fd5b5035919050565b6000815180845260005b8181101561052c57602081850181015186830182015201610510565b506000602082860101526020601f19601f83011685010191505092915050565b60408152600061055f6040830185610506565b90508260208301529392505050565b60006020828403121561058057600080fd5b81356001600160a01b038116811461059757600080fd5b9392505050565b6020815260006105976020830184610506565b634e487b7160e01b600052603260045260246000fd5b634e487b7160e01b600052601160045260246000fd5b808201808211156105f0576105f06105c7565b92915050565b600181811c9082168061060a57607f821691505b60208210810361062a57634e487b7160e01b600052602260045260246000fd5b50919050565b600060018201610642576106426105c7565b506001019056fea2646970667358221220a4686a25a766f475540746f236fdb4eda75c83c55cb60131b67e9b3d712ae6b164736f6c63430008130033",
    "sourcePath": "/Users/song/bc/go-ethereum/tests/solidity/contracts/voters.sol",
    "compiler": {
        "name": "solc",
        "version": "0.8.19+commit.7dd6d404"
    },
    "functionHashes": {
        "chairperson()": "2e4176cf",
        "giveRightToVote(address)": "9e7b8d61",
        "proposals(uint256)": "013cf08b",
        "vote(uint256)": "0121b93f",
        "voters(address)": "a3ec138d",
        "winnerName()": "e2ba53f0",
        "winningProposal()": "609ff1bd"
    },
    "gasEstimates": {
        "creation": {
            "codeDepositCost": "332600",
            "executionCost": "infinite",
            "totalCost": "infinite"
        },
        "external": {
            "chairperson()": "2382",
            "giveRightToVote(address)": "28944",
            "proposals(uint256)": "infinite",
            "vote(uint256)": "75262",
            "voters(address)": "4691",
            "winnerName()": "infinite",
            "winningProposal()": "infinite"
        }
    }
}